{
  "contractName": "Voting",
  "abi": [
    {
      "constant": true,
      "inputs": [],
      "name": "votingStart",
      "outputs": [
        {
          "name": "",
          "type": "uint256"
        }
      ],
      "payable": false,
      "stateMutability": "view",
      "type": "function"
    },
    {
      "constant": true,
      "inputs": [],
      "name": "candidatesCount",
      "outputs": [
        {
          "name": "",
          "type": "uint256"
        }
      ],
      "payable": false,
      "stateMutability": "view",
      "type": "function"
    },
    {
      "constant": true,
      "inputs": [
        {
          "name": "",
          "type": "uint256"
        }
      ],
      "name": "candidates",
      "outputs": [
        {
          "name": "id",
          "type": "uint256"
        },
        {
          "name": "name",
          "type": "string"
        },
        {
          "name": "party",
          "type": "string"
        },
        {
          "name": "voteCount",
          "type": "uint256"
        }
      ],
      "payable": false,
      "stateMutability": "view",
      "type": "function"
    },
    {
      "constant": true,
      "inputs": [],
      "name": "votingEnd",
      "outputs": [
        {
          "name": "",
          "type": "uint256"
        }
      ],
      "payable": false,
      "stateMutability": "view",
      "type": "function"
    },
    {
      "constant": true,
      "inputs": [
        {
          "name": "",
          "type": "address"
        }
      ],
      "name": "voters",
      "outputs": [
        {
          "name": "",
          "type": "bool"
        }
      ],
      "payable": false,
      "stateMutability": "view",
      "type": "function"
    },
    {
      "constant": false,
      "inputs": [
        {
          "name": "_name",
          "type": "string"
        },
        {
          "name": "_party",
          "type": "string"
        }
      ],
      "name": "addCandidate",
      "outputs": [
        {
          "name": "",
          "type": "uint256"
        }
      ],
      "payable": false,
      "stateMutability": "nonpayable",
      "type": "function"
    },
    {
      "constant": false,
      "inputs": [
        {
          "name": "candidateId",
          "type": "uint8"
        }
      ],
      "name": "vote",
      "outputs": [],
      "payable": false,
      "stateMutability": "nonpayable",
      "type": "function"
    },
    {
      "constant": false,
      "inputs": [],
      "name": "checkVote",
      "outputs": [
        {
          "name": "",
          "type": "bool"
        }
      ],
      "payable": false,
      "stateMutability": "nonpayable",
      "type": "function"
    },
    {
      "constant": false,
      "inputs": [],
      "name": "getcandidatesCount",
      "outputs": [
        {
          "name": "",
          "type": "uint256"
        }
      ],
      "payable": false,
      "stateMutability": "nonpayable",
      "type": "function"
    },
    {
      "constant": false,
      "inputs": [
        {
          "name": "_candidateId",
          "type": "uint256"
        }
      ],
      "name": "getCandidate",
      "outputs": [
        {
          "name": "",
          "type": "uint256"
        },
        {
          "name": "",
          "type": "string"
        },
        {
          "name": "",
          "type": "string"
        },
        {
          "name": "",
          "type": "uint256"
        }
      ],
      "payable": false,
      "stateMutability": "nonpayable",
      "type": "function"
    },
    {
      "constant": false,
      "inputs": [
        {
          "name": "_votingStart",
          "type": "uint256"
        },
        {
          "name": "_votingEnd",
          "type": "uint256"
        }
      ],
      "name": "setDates",
      "outputs": [],
      "payable": false,
      "stateMutability": "nonpayable",
      "type": "function"
    },
    {
      "constant": true,
      "inputs": [],
      "name": "getDates",
      "outputs": [
        {
          "name": "",
          "type": "uint256"
        },
        {
          "name": "",
          "type": "uint256"
        }
      ],
      "payable": false,
      "stateMutability": "view",
      "type": "function"
    }
  ],
  "bytecode": "0x608060405234801561001057600080fd5b50610d21806100206000396000f3fe6080604052600436106100b4576000357c010000000000000000000000000000000000000000000000000000000090048063101158af146100b957806316441813146100e457806326541b56146101165780632d35a8a2146102895780632f5c30ca146102b45780633477ee2e146102df57806335b8e8201461040d57806385a386351461053b578063a3ec138d14610566578063b0417e98146105cf578063b3f98adc146105fe578063dedf141e1461063c575b600080fd5b3480156100c557600080fd5b506100ce610681565b6040518082815260200191505060405180910390f35b3480156100f057600080fd5b506100f9610687565b604051808381526020018281526020019250505060405180910390f35b34801561012257600080fd5b506102736004803603604081101561013957600080fd5b810190808035906020019064010000000081111561015657600080fd5b82018360208201111561016857600080fd5b8035906020019184600183028401116401000000008311171561018a57600080fd5b91908080601f016020809104026020016040519081016040528093929190818152602001838380828437600081840152601f19601f820116905080830192505050505050509192919290803590602001906401000000008111156101ed57600080fd5b8201836020820111156101ff57600080fd5b8035906020019184600183028401116401000000008311171561022157600080fd5b91908080601f016020809104026020016040519081016040528093929190818152602001838380828437600081840152601f19601f820116905080830192505050505050509192919290505050610698565b6040518082815260200191505060405180910390f35b34801561029557600080fd5b5061029e610741565b6040518082815260200191505060405180910390f35b3480156102c057600080fd5b506102c9610747565b6040518082815260200191505060405180910390f35b3480156102eb57600080fd5b506103186004803603602081101561030257600080fd5b8101908080359060200190929190505050610751565b604051808581526020018060200180602001848152602001838103835286818151815260200191508051906020019080838360005b8381101561036857808201518184015260208101905061034d565b50505050905090810190601f1680156103955780820380516001836020036101000a031916815260200191505b50838103825285818151815260200191508051906020019080838360005b838110156103ce5780820151818401526020810190506103b3565b50505050905090810190601f1680156103fb5780820380516001836020036101000a031916815260200191505b50965050505050505060405180910390f35b34801561041957600080fd5b506104466004803603602081101561043057600080fd5b81019080803590602001909291905050506108b1565b604051808581526020018060200180602001848152602001838103835286818151815260200191508051906020019080838360005b8381101561049657808201518184015260208101905061047b565b50505050905090810190601f1680156104c35780820380516001836020036101000a031916815260200191505b50838103825285818151815260200191508051906020019080838360005b838110156104fc5780820151818401526020810190506104e1565b50505050905090810190601f1680156105295780820380516001836020036101000a031916815260200191505b50965050505050505060405180910390f35b34801561054757600080fd5b50610550610a40565b6040518082815260200191505060405180910390f35b34801561057257600080fd5b506105b56004803603602081101561058957600080fd5b81019080803573ffffffffffffffffffffffffffffffffffffffff169060200190929190505050610a46565b604051808215151515815260200191505060405180910390f35b3480156105db57600080fd5b506105e4610a66565b604051808215151515815260200191505060405180910390f35b34801561060a57600080fd5b5061063a6004803603602081101561062157600080fd5b81019080803560ff169060200190929190505050610aba565b005b34801561064857600080fd5b5061067f6004803603604081101561065f57600080fd5b810190808035906020019092919080359060200190929190505050610c04565b005b60035481565b600080600354600454915091509091565b600060026000815480929190600101919050555060806040519081016040528060025481526020018481526020018381526020016000815250600080600254815260200190815260200160002060008201518160000155602082015181600101908051906020019061070b929190610c50565b506040820151816002019080519060200190610728929190610c50565b5060608201518160030155905050600254905092915050565b60025481565b6000600254905090565b6000602052806000526040600020600091509050806000015490806001018054600181600116156101000203166002900480601f0160208091040260200160405190810160405280929190818152602001828054600181600116156101000203166002900480156108035780601f106107d857610100808354040283529160200191610803565b820191906000526020600020905b8154815290600101906020018083116107e657829003601f168201915b505050505090806002018054600181600116156101000203166002900480601f0160208091040260200160405190810160405280929190818152602001828054600181600116156101000203166002900480156108a15780601f10610876576101008083540402835291602001916108a1565b820191906000526020600020905b81548152906001019060200180831161088457829003601f168201915b5050505050908060030154905084565b600060608060008460008087815260200190815260200160002060010160008088815260200190815260200160002060020160008089815260200190815260200160002060030154828054600181600116156101000203166002900480601f01602080910402602001604051908101604052809291908181526020018280546001816001161561010002031660029004801561098e5780601f106109635761010080835404028352916020019161098e565b820191906000526020600020905b81548152906001019060200180831161097157829003601f168201915b50505050509250818054600181600116156101000203166002900480601f016020809104026020016040519081016040528092919081815260200182805460018160011615610100020316600290048015610a2a5780601f106109ff57610100808354040283529160200191610a2a565b820191906000526020600020905b815481529060010190602001808311610a0d57829003601f168201915b5050505050915093509350935093509193509193565b60045481565b60016020528060005260406000206000915054906101000a900460ff1681565b6000600160003373ffffffffffffffffffffffffffffffffffffffff1673ffffffffffffffffffffffffffffffffffffffff16815260200190815260200160002060009054906101000a900460ff16905090565b4260035411158015610acd575042600454115b1515610b1c576040517f08c379a0000000000000000000000000000000000000000000000000000000008152600401808060200182810382526000815260200160200191505060405180910390fd5b60008160ff16118015610b3357506002548160ff16105b1515610b82576040517f08c379a0000000000000000000000000000000000000000000000000000000008152600401808060200182810382526000815260200160200191505060405180910390fd5b60018060003373ffffffffffffffffffffffffffffffffffffffff1673ffffffffffffffffffffffffffffffffffffffff16815260200190815260200160002060006101000a81548160ff0219169083151502179055506000808260ff1681526020019081526020016000206003016000815480929190600101919050555050565b6000600454148015610c1857506000600354145b8015610c28575042620f42408301115b8015610c3357508181115b1515610c3e57600080fd5b81600381905550806004819055505050565b828054600181600116156101000203166002900490600052602060002090601f016020900481019282601f10610c9157805160ff1916838001178555610cbf565b82800160010185558215610cbf579182015b82811115610cbe578251825591602001919060010190610ca3565b5b509050610ccc9190610cd0565b5090565b610cf291905b80821115610cee576000816000905550600101610cd6565b5090565b9056fea165627a7a72305820bbd5ea4236a3e24b220732147fefefaaf2260da34e3da9c40b0f471a9526c6040029",
  "source": "pragma solidity 0.5.1;\n\ncontract Voting{\n\n    struct Candidate {\n        uint id;\n        string name;\n        string party;\n        uint voteCount;\n    }\n\n    mapping(uint => Candidate) public candidates;\n    mapping(address => bool) public voters;\n\n    uint public candidatesCount;\n    uint public votingStart;\n    uint public votingEnd;\n\n    function addCandidate(string memory _name, string memory _party) public returns(uint) {\n        candidatesCount++;\n        candidates[candidatesCount] = Candidate(candidatesCount, _name, _party, 0);\n        return candidatesCount;\n    }\n\n    function vote(uint8 candidateId) public {\n        require((votingStart <= now) && (votingEnd > now), \"\");\n        require((candidateId > 0) && (candidateId < candidatesCount), \"\");\n        voters[msg.sender] = true;\n        candidates[candidateId].voteCount++;\n    }\n\n    function checkVote() public returns(bool) {\n        return(voters[msg.sender]);\n    }\n\n    function getcandidatesCount() public returns(uint) {\n        return candidatesCount;\n    }\n\n    function getCandidate(uint _candidateId) public returns(uint, string memory,  string memory, uint) {\n        return(_candidateId, candidates[_candidateId].name, candidates[_candidateId].party, candidates[_candidateId].voteCount);\n    }\n\n    function setDates(uint _votingStart, uint _votingEnd)public {\n        require((votingEnd == 0) && (votingStart == 0) && (_votingStart + 1000000 > now) && (_votingEnd > _votingStart));\n        votingStart = _votingStart;\n        votingEnd = _votingEnd;\n    }\n\n    function getDates() public view returns(uint, uint) {\n        return(votingStart,votingEnd);\n    }\n\n}",
  "sourcePath": "/home/urjit/Documents/Blockchain/Dapp/voating_eth_dapp/contracts/Voting.sol",
  "compiler": {
    "name": "solc",
    "version": "0.5.1+commit.c8a2cb62.Emscripten.clang"
  },
  "schemaVersion": "3.0.11",
  "updatedAt": "2019-08-20T13:03:17.504Z",
  "devdoc": {
    "methods": {}
  },
  "userdoc": {
    "methods": {}
  }
}